:100000000C9490000C94B1000C94B1000C94B100CD
:100010000C94B1000C94B1000C94B1000C94B1009C
:100020000C94B1000C94B1000C94B1000C94B1008C
:100030000C94B1000C94B1000C94B1000C94B1007C
:100040000C94B1000C94B1000C94B1000C94B1006C
:100050000C94B1000C94B1000C94B1000C94B1005C
:100060000C94B1000C94B1000C94B1000C94B1004C
:100070000C94B1000C94B1000C94B1000C94B1003C
:100080000C94B1000C94B1000C94B1000C94B1002C
:100090000C94B1000C94B1000C94B1000C94B1001C
:1000A0000C94B1000C94B1000C94B1000C94B1000C
:1000B0000C94B1000C94B1000C94B1000C94B300FA
:1000C0000C94B1000C94B1000C94B1000C94B100EC
:1000D0000C94B1000C94B1000C94B1000C94B100DC
:1000E0000C94B1004E414E494E495459494E46CDAB
:1000F000CCCC3D0AD7233C17B7D13877CC2B3295DF
:1001000095E6241FB14F0A000020410000C84200BC
:10011000401C4620BCBE4CCA1B0E5AAEC59D740086
:1001200011241FBECFEFD1E2DEBFCDBF00E00CBF78
:1001300012E0A0E0B2E0EAEEF2E100E00BBF02C0A4
:1001400007900D92A630B107D9F729E0A6E0B2E0FA
:1001500001C01D92AC3FB207E1F70E9452020C941D
:1001600073090C9400001F920F920FB60F92112486
:100170008F939F9381E090E090930902809308020F
:100180008091060290910702019690930702809356
:1001900006029F918F910F900FBE0F901F901895A0
:1001A00010927C00EAE7F0E010828081836880830F
:1001B00008956F927F928F929F92AF92BF92CF924B
:1001C000DF92EF92FF920F931F93CF93DF93CDB700
:1001D000DEB7A4970FB6F894DEBF0FBECDBFFE0109
:1001E000759680E1DF011D928A95E9F710920F0262
:1001F00010920E0280E090E08130910509F410C168
:100200008230910509F406C1892B29F480917C0084
:10021000816480937C0080917A00806480937A006E
:1002200080917A0086FDFCCF609178007091790012
:1002300000910E0210910F02000F111F000F111FED
:10024000E1E0F0E0EC0FFD1F0E0F1F1F80E090E0DB
:100250000E94B8032AE038E240EA5BE30E944B04C4
:10026000D80154966D937D938D939C9357971092DC
:100270007C0080910E0290910F02019690930F02E4
:1002800080930E02833091050CF4B6CF6091060284
:1002900070910702072E000C880B990B0E94BA037D
:1002A00020910A0230910B0240910C0250910D02F4
:1002B0000E944B0420E030E04AE754E40E9410031F
:1002C0009F938F937F936F9300E012E01F930F93A0
:1002D000E1E0F0E0EC0FFD1FFF93EF930E94EB04D1
:1002E000BE016F5F7F4F80E192E00E94E00490E1E9
:1002F000692E92E0792EF30101900020E9F7319701
:100300008DE290E091838083888D8F938F898F9386
:100310008E898F938D898F931F930F9321E030E007
:100320002C0F3D1F3F932F930E94EB04BE016F5F84
:100330007F4FC3010E94E0048E01075E1F4F4E01F4
:1003400031E2830E911C0FB6F894DEBF0FBECDBF15
:1003500020E2A22EB12C30E0E32E32E0F32E80E139
:10036000C82E82E0D82EF30101900020E9F73197E2
:10037000B182A082D8018C9111969C91119712960E
:100380002C91129713963C910C5F1F4F3F932F9324
:100390009F938F93FF92EF92E1E0F0E0EC0FFD1F4F
:1003A000FF93EF930E94EB04BE016F5F7F4FC60186
:1003B0000E94E0040FB6F894DEBF0FBECDBF8016DA
:1003C000910669F6F60101900020E9F731978AE07D
:1003D00090E091838083C6010E94430288EE97E0FB
:1003E000D601FC011D923197E9F7A4960FB6F89457
:1003F000DEBF0FBECDBFDF91CF911F910F91FF9058
:10040000EF90DF90CF90BF90AF909F908F907F90B4
:100410006F90089580917C00856480937C00FBCE72
:1004200080917C00836480937C00F5CE1092C5009F
:1004300082E38093C40086E08093C20088E98093C1
:10044000C10008959091C00095FFFCCF8093C60035
:1004500008958091C00087FFFCCF8091C600089569
:10046000FC019091C00097FFFCCF9091C600919342
:10047000992329F09A3011F09D3099F711929E2F0F
:10048000981B892F0895FC012081222351F0319679
:100490009091C00095FFFCCF2093C60021912111BF
:1004A000F7CF0895CF92DF92EF92FF92CF93DF9331
:1004B000CDB7DEB7D4500FB6F894DEBF0FBECDBFB8
:1004C0000E94160210927C0010927A0080917A00AD
:1004D000836880937A00CE0101960E943002CE019B
:1004E00001960E94DC0460930A0270930B028093D1
:1004F0000C0290930D0241EC4093B0003BE030932E
:10050000B10021E320939000309391004093A0002C
:100510003093A100109220012DE0209321010E9430
:100520008203072E000C880B990B0E94BA0320E06F
:1005300030E04AE751E40E944B040E948903709323
:100540002901609328011092B3001092A900109223
:10055000A80010929B0010929A00249A80910101A9
:100560008860809301016C9AF89480917300826096
:100570008093730078948091080290910902892BEE
:10058000D1F310920902109208028091B3008D5F9E
:100590008093B3008091A8009091A9000296909357
:1005A000A9008093A80080919A0090919B000196E9
:1005B00090939B0080939A000E94D900609106025C
:1005C00070910702072E000C880B990B0E94BA034A
:1005D0006B017C0120910A0230910B0240910C02C8
:1005E00050910D0260E070E68AE697E40E941003E5
:1005F0009B01AC01C701B6010E94460418160CF01D
:10060000BACF80E090E0DC5F0FB6F894DEBF0FBE9B
:10061000CDBFDF91CF91FF90EF90DF90CF90089505
:100620000E9424030C940C040E94050458F00E94BC
:10063000FE0340F029F45F3F29F00C94F5035111BB
:100640000C9440040C94FB030E941D0468F399234E
:10065000B1F3552391F3951B550BBB27AA276217BE
:100660007307840738F09F5F5F4F220F331F441FCB
:10067000AA1FA9F335D00E2E3AF0E0E832D09150FF
:100680005040E695001CCAF72BD0FE2F29D0660FEC
:10069000771F881FBB1F261737074807AB07B0E82F
:1006A00009F0BB0B802DBF01FF2793585F4F3AF035
:1006B0009E3F510578F00C94F5030C9440045F3F85
:1006C000E4F3983ED4F3869577956795B795F795BB
:1006D0009F5FC9F7880F911D9695879597F90895A3
:1006E000E1E0660F771F881FBB1F6217730784073F
:1006F000BA0720F0621B730B840BBA0BEE1F88F74E
:10070000E09508950E9489036894B1110C94400407
:1007100008950E94250488F09F5798F0B92F9927D3
:10072000B751B0F0E1F0660F771F881F991F1AF0DC
:10073000BA95C9F714C0B13091F00E943F04B1E0FE
:1007400008950C943F04672F782F8827B85F39F0FD
:10075000B93FCCF3869577956795B395D9F73EF475
:1007600090958095709561957F4F8F4F9F4F08951D
:10077000E89409C097FB3EF490958095709561953B
:100780007F4F8F4F9F4F9923A9F0F92F96E9BB27F1
:100790009395F695879577956795B795F111F8CF6D
:1007A000FAF4BB0F11F460FF1BC06F5F7F4F8F4FD8
:1007B0009F4F16C0882311F096E911C0772321F0CE
:1007C0009EE8872F762F05C0662371F096E8862F66
:1007D00070E060E02AF09A95660F771F881FDAF7BD
:1007E000880F9695879597F9089597F99F6780E800
:1007F00070E060E008959FEF80EC089500240A9473
:100800001616170618060906089500240A941216EB
:100810001306140605060895092E0394000C11F41E
:10082000882352F0BB0F40F4BF2B11F460FF04C0CB
:100830006F5F7F4F8F4F9F4F089557FD9058440F24
:10084000551F59F05F3F71F04795880F97FB991F2F
:1008500061F09F3F79F087950895121613061406EC
:10086000551FF2CF4695F1DF08C016161706180679
:10087000991FF1CF86957105610508940895E89454
:10088000BB2766277727CB0197F908950E94B80404
:1008900008F48FEF08950E945E040C940C040E94EB
:1008A000FE0338F00E94050420F0952311F00C940B
:1008B000F5030C94FB0311240C9440040E941D04C6
:1008C00070F3959FC1F3950F50E0551F629FF001A3
:1008D000729FBB27F00DB11D639FAA27F00DB11DBC
:1008E000AA1F649F6627B00DA11D661F829F222745
:1008F000B00DA11D621F739FB00DA11D621F839FCC
:10090000A00D611D221F749F3327A00D611D231FA1
:10091000849F600D211D822F762F6A2F11249F57EF
:1009200050409AF0F1F088234AF0EE0FFF1FBB1FF2
:10093000661F771F881F91505040A9F79E3F5105B1
:1009400080F00C94F5030C9440045F3FE4F3983E70
:10095000D4F3869577956795B795F795E7959F5F5B
:10096000C1F7FE2B880F911D9695879597F90895ED
:10097000990F0008550FAA0BE0E8FEEF16161706B0
:10098000E807F907C0F012161306E407F50798F018
:10099000621B730B840B950B39F40A2661F0232B31
:1009A000242B252B21F408950A2609F4A140A695AD
:1009B0008FEF811D811D0895662777270C942407EA
:1009C000FB01DC010D900020E9F7119701900D92D9
:1009D0000020E1F708950F931F93CF93DF93CDB7D6
:1009E000DEB72E970FB6F894DEBF0FBECDBF0E89CF
:1009F0001F8986E08C831A8309838FEF9FE79E838C
:100A00008D83AE01465E5F4F688D798DCE01019674
:100A10000E941A05EF81F885E00FF11F10822E96D3
:100A20000FB6F894DEBF0FBECDBFDF91CF911F91FF
:100A30000F9108952F923F924F925F926F927F9203
:100A40008F929F92AF92BF92CF92DF92EF92FF92DE
:100A50000F931F93CF93DF93CDB7DEB72B970FB6CE
:100A6000F894DEBF0FBECDBF6C017B018A01FC0193
:100A700017821682838181FFCCC1CE0101963C0191
:100A8000F6019381F70193FD859193FF81917F0199
:100A9000882309F4BAC1853239F493FD859193FF17
:100AA00081917F01853229F4B60190E00E94B70858
:100AB000E7CF912C212C312CFFE1F315D8F08B32AC
:100AC00079F038F4803279F08332A1F4232D20615B
:100AD0001DC08D3261F0803369F4232D216016C072
:100AE000832D8260382EE32DE4603E2E2AC0F32D44
:100AF000F8601DC037FC2DC020ED280F2A3040F0D3
:100B00008E32B9F436FC81C1232D2064322E19C0F7
:100B100036FE06C08AE0989E200D1124922E11C048
:100B2000EAE02E9E200D1124222EF32DF0623F2E9E
:100B300008C08C3621F4832D8068382E02C0883698
:100B400041F4F70193FD859193FF81917F0181111C
:100B5000B3CF982F9F7D9554933028F40C5F1F4F8F
:100B60009FE399830DC0833631F0833771F083356D
:100B700009F059C021C0F801808189830E5F1F4FA1
:100B800088248394912C530113C02801F2E04F0E66
:100B9000511CF801A080B18036FE03C0692D70E0C1
:100BA00002C06FEF7FEFC5010E94AC084C018201CB
:100BB000F32DFF773F2E16C0280122E0420E511C74
:100BC000F801A080B18036FE03C0692D70E002C03C
:100BD0006FEF7FEFC5010E94A1084C01F32DF06873
:100BE0003F2E820133FC1BC0822D90E088169906AF
:100BF000B0F4B60180E290E00E94B7082A94F4CFE6
:100C0000F50137FC859137FE81915F01B60190E0D7
:100C10000E94B70821102A9421E0821A91088114B9
:100C2000910471F7E8C0843611F0893641F5F80176
:100C300037FE07C060817181828193810C5F1F4FF5
:100C400008C060817181072E000C880B990B0E5F24
:100C50001F4FF32DFF763F2E97FF09C0909580958B
:100C6000709561957F4F8F4F9F4FF0683F2E2AE020
:100C700030E0A3010E94F308882E861845C085370E
:100C800031F4232D2F7EB22E2AE030E025C0932DA3
:100C9000997FB92E8F36C1F018F4883579F0B5C038
:100CA000803719F0883721F0B0C0E92FE061BE2EFF
:100CB000B4FE0DC0FB2DF460BF2E09C034FE0AC087
:100CC000292F2660B22E06C028E030E005C020E1C2
:100CD00030E002C020E132E0F801B7FE07C06081D9
:100CE0007181828193810C5F1F4F06C06081718189
:100CF00080E090E00E5F1F4FA3010E94F308882E52
:100D00008618FB2DFF773F2E36FE0DC0232D2E7F3C
:100D1000A22E891458F434FE0BC032FC09C0832D76
:100D20008E7EA82E05C0B82CA32C03C0B82C01C001
:100D3000B92CA4FE0FC0FE01E80DF11D80818033A7
:100D400021F49A2D997EA92E09C0A2FE06C0B39463
:100D5000B39404C08A2D867809F0B394A3FC11C023
:100D6000A0FE06C0B21488F4280C922C9B180EC06A
:100D7000B21460F4B60180E290E00E94B708B39428
:100D8000F7CFB21418F42B1802C0982C212CA4FE13
:100D900010C0B60180E390E00E94B708A2FE17C021
:100DA000A1FC03C088E790E002C088E590E0B601AE
:100DB0000CC08A2D867859F0A1FE02C08BE201C0DA
:100DC00080E2A7FC8DE2B60190E00E94B70889148A
:100DD00038F4B60180E390E00E94B7089A94F7CF08
:100DE0008A94F301E80DF11D8081B60190E00E9424
:100DF000B7088110F5CF222009F442CEB60180E277
:100E000090E00E94B7082A94F6CFF6018681978178
:100E100002C08FEF9FEF2B960FB6F894DEBF0FBE88
:100E2000CDBFDF91CF911F910F91FF90EF90DF9099
:100E3000CF90BF90AF909F908F907F906F905F907A
:100E40004F903F902F9008958F929F92AF92BF92B4
:100E5000CF92DF92EF92FF920F931F93CF93DF9386
:100E6000EC016B016115710519F0FB019183808321
:100E70007E01FFEFEF1AFF0A0881802F90E00E94A9
:100E80008008892B11F0E701F3CF0D3239F47E0190
:100E900082E0E80EF11C098111E008C00B3229F450
:100EA0007E0192E0E90EF11C098110E0E701219733
:100EB00043E050E06CEE70E0CE010E948908892B7F
:100EC000C1F4239645E050E067EE70E0CE010E9449
:100ED0008908892B09F42596C114D10419F0F6016B
:100EE000D183C0831111F6C060E070E080E89FE715
:100EF000FAC043E050E064EE70E0CE010E94890841
:100F0000892B59F4C114D10409F4E9C0F2E0EF0EC1
:100F1000F11CF601F182E082E2C020E030E0A9019C
:100F2000C0E0D0E0F70160EDA62EA00E89E08A15A2
:100F300030F1912F9260B92E812F887012FF04C07A
:100F4000811124C0219622C081112197A5E0B0E033
:100F50000E945909DC01CB01880F991FAA1FBB1FF2
:100F60009C01AD012A0D311D411D511D283989E912
:100F70003807480789E1580748F0166006C09EEF19
:100F8000A9120AC013FD40C01860B12E8FEFE81AF5
:100F9000F80A00811B2DC6CF802F8F7D8534A1F5E7
:100FA00080818D3211F4106106C08B3221F03196B0
:100FB00061E070E004C08181329662E070E08053AD
:100FC0008A3018F0E61BF70B1FC060E070E0603855
:100FD0009CE079075CF4DB01AA0FBB1FAA0FBB1FC3
:100FE0006A0F7B1F660F771F680F711D3196DF0137
:100FF00011978C9180538A3050F314FF03C0719580
:1010000061957109C60FD71F11FF08C0C114D10423
:1010100029F0CF010197F60191838083CA01B901BC
:101020000E94B803212F2370233019F04B015C017B
:1010300006C04B015C01B7FAB094B7F8B09420E059
:1010400030E0A901C501B4010E945109882309F4C7
:101050003EC0D7FF06C0D195C195D10903E011E08C
:1010600002C00BE111E06801F8E1CF1AD10890E26B
:10107000E92EF12CCE15DF0574F0F801259135919C
:1010800045915491C501B4010E944B044B015C0190
:10109000CE19DF09EFCF04501109F594E7940C1530
:1010A0001D0541F78A2D880F8B2D881F8F3F49F032
:1010B00020E030E0A901C501B4010E94510981116D
:1010C00006C082E290E09093FB098093FA09C50183
:1010D000B40109C060E070E080E89FEF04C060E008
:1010E00070E080EC9FE7DF91CF911F910F91FF900F
:1010F000EF90DF90CF90BF90AF909F908F9008952A
:1011000091110C945609803219F089508550C8F716
:101110000895FB01DC014150504088F08D918134ED
:101120001CF08B350CF4805E659161341CF06B35DE
:101130000CF4605E861B611171F3990B0895881B96
:10114000FCCFFC010590615070400110D8F78095EC
:1011500090958E0F9F1F0895FC0161507040019083
:101160000110D8F7809590958E0F9F1F08950F93CB
:101170001F93CF93DF93FB01238121FD03C08FEFEA
:101180009FEF2CC022FF16C04681578124813581F4
:101190004217530744F4A081B1819D012F5F3F4F57
:1011A000318320838C93268137812F5F3F4F378394
:1011B000268314C08B01EC01FB010084F185E02D36
:1011C0001995892BE1F6D80116968D919C91179768
:1011D000019617969C938E931697CE01DF91CF912F
:1011E0001F910F910895FA01AA27283051F120315B
:1011F00081F1E8946F936E7F6E5F7F4F8F4F9F4FAB
:10120000AF4FB1E03ED0B4E03CD0670F781F891FEC
:101210009A1FA11D680F791F8A1F911DA11D6A0FBA
:10122000711D811D911DA11D20D009F468943F916D
:101230002AE0269F11243019305D3193DEF6CF016C
:101240000895462F4770405D4193B3E00FD0C9F732
:10125000F6CF462F4F70405D4A3318F0495D31FD9F
:101260004052419302D0A9F7EACFB4E0A6959795F2
:10127000879577956795BA95C9F7009761057105C8
:1012800008959B01AC010A2E069457954795379512
:101290002795BA95C9F7620F731F841F951FA01D6C
:1012A00008950E94B80408F481E0089599278827DA
:1012B00008950E946409A59F900DB49F900DA49F6E
:1012C000800D911D11240895A29FB001B39FC0010C
:1012D000A39F700D811D1124911DB29F700D811D62
:0A12E0001124911D0895F894FFCF2A
:0612EA00252E3466000011
:00000001FF
