:100000000C940D010C9421010C9421010C942101FC
:100010000C9421010C9421010C9421010C942101D8
:100020000C9421010C9421010C9421010C942101C8
:100030000C9421010C9421010C9421010C942101B8
:100040000C9421010C9421010C9421010C942101A8
:100050000C9421010C9421010C9421010C94210198
:100060000C9421010C9421010C9421010C94210188
:100070000C9421010C9421010C9421010C94210178
:100080000C9421010C9421010C9421010C94210168
:100090000C9421010C9421010C9421010C94210158
:1000A0000C9421010C9421010C9421010C94210148
:1000B0000C9421010C9421010C9421010C94230136
:1000C0000C9421010C9421010C9421010C94210128
:1000D0000C9421010C9421010C9421010C94210118
:1000E0000C9421014E414E494E495459494E46CD3A
:1000F000CCCC3D0AD7233C17B7D13877CC2B3295DF
:1001000095E6241FB14F0A000020410000C84200BC
:10011000401C4620BCBE4CCA1B0E5AAEC59D740086
:10012000407A10F35A00A0724E18090010A5D4E8C6
:100130000000E87648170000E40B54020000CA9A59
:100140003B000000E1F505000080969800000040AB
:10015000420F000000A086010000001027000000F0
:1001600000E803000000006400000000000A000036
:100170000000000100000000002C76D888DC674FEA
:100180000823DFC1DFAE59E1B1B796E5E3E453C61A
:100190003AE651997696E8E6C28426EB898C9B6212
:1001A000ED407C6FFCEFBC9C9F40F2BAA56FA5F4BC
:1001B00090055A2AF75C936B6CF9676DC11BFCE0E4
:1001C000E40D47FEF520E6B500D0ED902E03009437
:1001D0003577050080841E080000204E0A000000CC
:1001E000C80C333333330F986E12831141EF8D21D6
:1001F00014893BE65516CFFEE6DB18D1844B381B3D
:10020000F77C1D901DA4BBE424203284725E228101
:1002100000C9F124ECA1E53D270011241FBECFEF5A
:10022000D1E2DEBFCDBF00E00CBF23E0A0E0B2E032
:1002300001C01D92AE30B207E1F70E94A0020C94FB
:10024000C9090C9400001F920F920FB60F9211244F
:100250008F939F9381E090E090930302809302023A
:100260008091000290910102019690930102809387
:1002700000029F918F910F900FBE0F901F901895C5
:10028000F89410927C00EAE7F0E0108280818768A1
:100290008083789408956F927F928F929F92AF920D
:1002A000BF92CF92DF92EF92FF920F931F93CF9363
:1002B000DF93CDB7DEB7A3970FB6F894DEBF0FBEBE
:1002C000CDBF1D8A1E8A1F8A188E198E1A8E1B8E0C
:1002D0001C8E1D8E1E8E1F8E18A281E489A383E4BE
:1002E0008AA385E48BA3109209021092080291E47C
:1002F0009E012F5D3F4F790180917C00892B809377
:100300007C000CE310E0812C912C540180917A0048
:10031000806480937A0080917A0086FDFCCF6091A2
:1003200078007091790080E090E00E9488049B0141
:10033000AC01C501B4010E947B034B015C0101507B
:10034000110921F70091080210910902000F111FF5
:10035000000F111F81E090E08C0F9D1F080F191FE7
:1003600020E030E040E752E4C501B4010E94E70319
:100370002AE038E240EA5BE30E941B05F801648B47
:10038000758B868B978B10927C00809108029091E0
:100390000902019690930902809308028330910527
:1003A0002CF4F701E80FF91F9081A6CF60910002AD
:1003B00070910102072E000C880B990B0E948A0491
:1003C00020910402309105024091060250910702EB
:1003D0000E941B0520E030E04AE754E40E94E70356
:1003E0008E010F5F1F4F24E044E00E94AC05B8016E
:1003F0008AE092E00E94D0059AE0692E92E0792E80
:10040000F30101900020E9F731978DE290E09183AC
:1004100080836D897E898F89988D24E044E00E94D5
:10042000AC05B801C3010E94D0055E01F9E1AF0E31
:10043000B11C2DE2C22ED12C8AE0882E82E0982EAB
:10044000F30101900020E9F73197D182C082F501D4
:1004500061917191819191915F018E010F5F1F4FA9
:1004600024E044E00E94AC05B801C4010E94D0051C
:10047000AE14BF0409F7F40101900020E9F73197A9
:100480008AE090E091838083C4010E94910280E021
:1004900091E0F4019C01119221503040E1F7A396C4
:1004A0000FB6F894DEBF0FBECDBFDF91CF911F9185
:1004B0000F91FF90EF90DF90CF90BF90AF909F9003
:1004C0008F907F906F9008951092C50082E3809383
:1004D000C40086E08093C20088E18093C100089543
:1004E0009091C00095FFFCCF8093C6000895809145
:1004F000C00087FFFCCF8091C6000895FC01909159
:10050000C00097FFFCCF9091C6009193992329F0EA
:100510009A3011F09D3099F711929E2F981B892FD8
:100520000895FC012081222351F031969091C00062
:1005300095FFFCCF2093C60021912111F7CF08959C
:10054000CF93DF93CDB7DEB7DA950FB6F894DEBF61
:100550000FBECDBF0E9464027894F89410927C0084
:1005600010927A0080917A00876880937A0078945C
:10057000CE0101960E947E02CE0101960E94CC051A
:100580006093040270930502809306029093070221
:1005900041E3409380003BE03093810021EC2093C5
:1005A000A0003093A100409390003093910028E187
:1005B00036EF309387002093860020E332EF3093AC
:1005C000A7002093A6002CE330EF309397002093F0
:1005D0009600109220012DE02093210120E030E0D0
:1005E0004AE751E40E941B050E94590470932901B7
:1005F0006093280110928B0010928A001092A9003B
:100600001092A80010929B0010929A00269A809156
:1006100001018860809301016C9AF89480917300C5
:10062000826080937300789480910202909103021B
:10063000892BD1F31092030210920202809186005E
:100640009091870020918A0030918B009695879534
:10065000820F931F90938B0080938A008091A60055
:100660009091A7002091A8003091A90096958795B8
:10067000820F931F9093A9008093A8008091960009
:100680009091970020919A0030919B0096958795C4
:10069000820F931F90939B0080939A000E944B01BE
:1006A00060910002709101026F5F7F4F072E000C76
:1006B000880B990B0E948A04209104023091050254
:1006C00040910602509107020E941B0520E030E68F
:1006D0004AE657E40E94160518160CF0A5CF80E0F4
:1006E00090E0D3950FB6F894DEBF0FBECDBFDF917B
:1006F000CF9108955058BB27AA270E9492030C94CB
:10070000DC040E94CE0438F00E94D50420F039F4B5
:100710009F3F19F426F40C94CB040EF4E095E7FB0C
:100720000C94C504E92F0E94ED0458F3BA17620730
:1007300073078407950720F079F4A6F50C940F054C
:100740000EF4E0950B2EBA2FA02D0B01B9019001EC
:100750000C01CA01A0011124FF27591B99F0593F30
:1007600050F4503E68F11A16F040A22F232F342F78
:100770004427585FF3CF469537952795A795F040C6
:100780005395C9F77EF41F16BA0B620B730B840BDB
:10079000BAF09150A1F0FF0FBB1F661F771F881F93
:1007A000C2F70EC0BA0F621F731F841F48F48795EB
:1007B00077956795B795F7959E3F08F0B0CF9395DD
:1007C000880F08F09927EE0F9795879508950E9456
:1007D000FB030C94DC040E94D50458F00E94CE0464
:1007E00040F029F45F3F29F00C94C50451110C949A
:1007F00010050C94CB040E94ED0468F39923B1F327
:10080000552391F3951B550BBB27AA276217730736
:10081000840738F09F5F5F4F220F331F441FAA1FCA
:10082000A9F335D00E2E3AF0E0E832D09150504086
:10083000E695001CCAF72BD0FE2F29D0660F771F34
:10084000881FBB1F261737074807AB07B0E809F01A
:10085000BB0B802DBF01FF2793585F4F3AF09E3F9F
:10086000510578F00C94C5040C9410055F3FE4F337
:10087000983ED4F3869577956795B795F7959F5FE2
:10088000C9F7880F911D9695879597F90895E1E02E
:10089000660F771F881FBB1F621773078407BA078D
:1008A00020F0621B730B840BBA0BEE1F88F7E095E8
:1008B00008950E94F50488F09F5798F0B92F992762
:1008C000B751B0F0E1F0660F771F881F991F1AF03B
:1008D000BA95C9F714C0B13091F00E940F05B1E08C
:1008E00008950C940F05672F782F8827B85F39F08B
:1008F000B93FCCF3869577956795B395D9F73EF4D4
:1009000090958095709561957F4F8F4F9F4F08957B
:10091000E89409C097FB3EF4909580957095619599
:100920007F4F8F4F9F4F9923A9F0F92F96E9BB274F
:100930009395F695879577956795B795F111F8CFCB
:10094000FAF4BB0F11F460FF1BC06F5F7F4F8F4F36
:100950009F4F16C0882311F096E911C0772321F02C
:100960009EE8872F762F05C0662371F096E8862FC4
:1009700070E060E02AF09A95660F771F881FDAF71B
:10098000880F9695879597F9089597F99F6780E85E
:1009900070E060E008959FEF80EC089500240A94D1
:1009A0001616170618060906089500240A9412164A
:1009B0001306140605060895092E0394000C11F47D
:1009C000882352F0BB0F40F4BF2B11F460FF04C02A
:1009D0006F5F7F4F8F4F9F4F089557FD9058440F83
:1009E000551F59F05F3F71F04795880F97FB991F8E
:1009F00061F09F3F79F0879508951216130614064B
:100A0000551FF2CF4695F1DF08C0161617061806D7
:100A1000991FF1CF86957105610508940895E894B2
:100A2000BB2766277727CB0197F908950E94880591
:100A300008F48FEF08950E942E050C94DC040E94A8
:100A4000CE0438F00E94D50420F0952311F00C94C8
:100A5000C5040C94CB0411240C9410050E94ED04E1
:100A600070F3959FC1F3950F50E0551F629FF00101
:100A7000729FBB27F00DB11D639FAA27F00DB11D1A
:100A8000AA1F649F6627B00DA11D661F829F2227A3
:100A9000B00DA11D621F739FB00DA11D621F839F2A
:100AA000A00D611D221F749F3327A00D611D231F00
:100AB000849F600D211D822F762F6A2F11249F574E
:100AC00050409AF0F1F088234AF0EE0FFF1FBB1F51
:100AD000661F771F881F91505040A9F79E3F510510
:100AE00080F00C94C5040C9410055F3FE4F3983E2D
:100AF000D4F3869577956795B795F795E7959F5FBA
:100B0000C1F7FE2B880F911D9695879597F908954B
:100B1000990F0008550FAA0BE0E8FEEF161617060E
:100B2000E807F907C0F012161306E407F50798F076
:100B3000621B730B840B950B39F40A2661F0232B8F
:100B4000242B252B21F408950A2609F4A140A6950B
:100B50008FEF811D811D0895EF920F931F93CF9307
:100B6000DF93E80147FD02C034E001C034E1042E08
:100B7000000C550B57FF03C0519541955109E32EC9
:100B8000022F242FAE010E94DB05CE01DF91CF9111
:100B90001F910F91EF900895662777270C945207C5
:100BA000FB01DC010D900020E9F7119701900D92F7
:100BB0000020E1F708958F929F92AF92BF92CF925B
:100BC000DF92EF92FF920F931F93CF93DF93CDB7F6
:100BD000DEB729970FB6F894DEBF0FBECDBF6A010E
:100BE000122FB02E2BE3201720F0FF24F394F00EE9
:100BF00002C02CE3F22E0F2D27E0AE014F5F5F4FB6
:100C00000E94AE08BC014981842F8970813031F087
:100C1000E1FC06C0E0FE06C090E205C09DE203C014
:100C20009BE201C090E05E2D507143FF3CC09111EA
:100C300002C083E001C084E0811718F4212F281B33
:100C400001C020E051110BC0F601822F30E2882351
:100C500019F031938150FBCFC20ED11C20E09923B3
:100C600029F0D6019C93F60131966F01C6010396D7
:100C7000E2FE0AC03EE4D6013C9341E411964C9357
:100C8000119712963C9306C03EE6F601308341E68A
:100C900041833283FC01322F40E2332309F442C006
:100CA00041933150FACF42FF44C0911102C083E01A
:100CB00001C084E0811718F4212F281B01C020E017
:100CC00051110BC0F601822F30E2882319F03193C5
:100CD0008150FBCFC20ED11C20E0992329F0D60110
:100CE0009C93F60131966F01C6010396E2FE0BC09C
:100CF00039E4D6013C933EE411963C93119736E4D7
:100D000012963C9307C039E6F60130833EE6318304
:100D100036E63283FC01322F40E2332319F041934F
:100D20003150FBCFFC01E20FF11D10828EEF9FEFDF
:100D3000A6C021E030E0911102C020E030E016169C
:100D400017061CF4FB01319602C0E1E0F0E02E0F23
:100D50003F1FBB2021F0EB2DF0E0319602C0E0E018
:100D6000F0E02E0F3F1FE12FF0E02E173F071CF49D
:100D7000121B212F01C020E08E2D887159F4F6013D
:100D8000822F30E2882319F031938150FBCFC20EBD
:100D9000D11C20E0992329F0D6019C93F6013196CD
:100DA0006F0151110BC0F601822F90E3882319F0D7
:100DB00091938150FBCFC20ED11C20E00F2D060F66
:100DC0009A81342F307144FF03C0913309F40150EC
:100DD000101624F4093018F008E001C001E0AB015E
:100DE00077FF02C040E050E0FB01E41BF50BA1E0FF
:100DF000B0E0AC0FBD1FEA0FFB1F8EE2A82E4B0127
:100E0000801A91080B2D10E01195019511094F3FA3
:100E1000BFEF5B0721F4D601AC9211966D01641708
:100E200075072CF08416950614F4818101C080E3C7
:100E3000415051093196D60111967D014017510755
:100E400024F0D6018C936701E2CF6417750739F45B
:100E5000963320F4953319F4311101C081E3F60182
:100E60008083F701822F90E2882319F091938150BB
:100E7000FBCFF701E20FF11D108280E090E0299690
:100E80000FB6F894DEBF0FBECDBFDF91CF911F919B
:100E90000F91FF90EF90DF90CF90BF90AF909F9019
:100EA0008F9008958F929F92AF92BF92CF92DF92D0
:100EB000EF92FF920F931F93CF93DF93EC016B019F
:100EC0006115710519F0FB01918380837E01FFEFAD
:100ED000EF1AFF0A0881802F90E00E948609892B73
:100EE00011F0E701F3CF0D3239F47E0182E0E80E14
:100EF000F11C098111E008C00B3229F47E0192E057
:100F0000E90EF11C098110E0E701219743E050E070
:100F10006CEE70E0CE010E948F09892BC1F42396FC
:100F200045E050E067EE70E0CE010E948F09892B0A
:100F300009F42596C114D10419F0F601D183C083B8
:100F40001111F6C060E070E080E89FE7FAC043E06E
:100F500050E064EE70E0CE010E948F09892B59F4B5
:100F6000C114D10409F4E9C0F2E0EF0EF11CF6015E
:100F7000F182E082E2C020E030E0A901C0E0D0E0F0
:100F8000F70160EDA62EA00E89E08A1530F1912FB1
:100F90009260B92E812F887012FF04C0811124C085
:100FA000219622C081112197A5E0B0E00E94AF09EF
:100FB000DC01CB01880F991FAA1FBB1F9C01AD014B
:100FC0002A0D311D411D511D283989E9380748076F
:100FD00089E1580748F0166006C09EEFA9120AC0C2
:100FE00013FD40C01860B12E8FEFE81AF80A008197
:100FF0001B2DC6CF802F8F7D8534A1F580818D324A
:1010000011F4106106C08B3221F0319661E070E07E
:1010100004C08181329662E070E080538A3018F01B
:10102000E61BF70B1FC060E070E060389CE07907BA
:101030005CF4DB01AA0FBB1FAA0FBB1F6A0F7B1F4B
:10104000660F771F680F711D3196DF0111978C9124
:1010500080538A3050F314FF03C071956195710974
:10106000C60FD71F11FF08C0C114D10429F0CF014A
:101070000197F60191838083CA01B9010E94880417
:10108000212F2370233019F04B015C0106C04B0166
:101090005C01B7FAB094B7F8B09420E030E0A90151
:1010A000C501B4010E94A709882309F43EC0D7FFF7
:1010B00006C0D195C195D10903E011E002C00BE152
:1010C00011E06801F8E1CF1AD10890E2E92EF12C85
:1010D000CE15DF0574F0F8012591359145915491B5
:1010E000C501B4010E941B054B015C01CE19DF094B
:1010F000EFCF04501109F594E7940C151D0541F745
:101100008A2D880F8B2D881F8F3F49F020E030E01B
:10111000A901C501B4010E94A709811106C082E29C
:1011200090E090930D0380930C03C501B40109C0B6
:1011300060E070E080E89FEF04C060E070E080EC69
:101140009FE7DF91CF911F910F91FF90EF90DF907C
:10115000CF90BF90AF909F908F900895283008F067
:1011600027E03327DA01990F311D87FD9160009642
:101170006105710539F432602E5F3D9330E32A95A5
:10118000E1F708959F3F30F080387105610509F05F
:101190003C5F3C5F3D93913008F08068911DDF9388
:1011A000CF931F930F93FF92EF92192F987F9695ED
:1011B000E92F96959695E90FFF27E758FE4F992757
:1011C0003327EE24FF24A701E70105900894079434
:1011D00028F4360FE71EF81E491F511D660F771FB2
:1011E000881F991F0694A1F70590079428F4E70E2D
:1011F000F81E491F561FC11D770F881F991F661FB4
:101200000694A1F70590079428F4F80E491F561F7D
:10121000C71FD11D880F991F661F771F0694A1F75E
:101220000590079420F4490F561FC71FD81F990F28
:10123000661F771F881F0694A9F784911095177071
:1012400041F0D695C79557954795F794E7941A9529
:10125000C1F7EFE1F1E06894159015913591659132
:10126000959105907FE27395E118F10A430B560BB7
:10127000C90BD009C0F7E10CF11E431F561FC91F4F
:10128000D01D7EF4703311F48A95E6CFE8940150B6
:1012900030F0080F0AF40027021708F4202F2395D6
:1012A000022F7A3328F079E37D932A95E9F710C06D
:1012B0007D932A9589F606949795679537951795A6
:1012C0001794E118F10A430B560BC90BD00998F09B
:1012D00023957E9173957A3308F070E37C93201305
:1012E000B8F77E9170617D9330F0839571E37D93C3
:1012F00070E32A95E1F71124EF90FF900F911F9171
:10130000CF91DF91992787FD9095089591110C94C5
:10131000AC09803219F089508550C8F70895FB0157
:10132000DC014150504088F08D9181341CF08B35A8
:101330000CF4805E659161341CF06B350CF4605EDA
:10134000861B611171F3990B0895881BFCCF0E94D5
:10135000880508F481E008959927882708950E9458
:10136000BA09A59F900DB49F900DA49F800D911D6B
:1013700011240895A29FB001B39FC001A39F700DD7
:10138000811D1124911DB29F700D811D1124911D8D
:061390000895F894FFCF60
:00000001FF
